{
	"data": {
		"bytecode": {
			"linkReferences": {},
			"object": "608060405260015f806101000a81548160ff02191690831515021790555060586001557fffffffffffffffffffffffffffffffffffffffffffffffffffffffffffffffa86002556040518060400160405280600b81526020017f68656c6c6f20776f726c64000000000000000000000000000000000000000000815250600390816200008c91906200045a565b507360d447c7704f3f9077e52fb4e581e996175fae3a60045f6101000a81548173ffffffffffffffffffffffffffffffffffffffff021916908373ffffffffffffffffffffffffffffffffffffffff1602179055507f63617400000000000000000000000000000000000000000000000000000000006005556040518060400160405280600781526020016040518060400160405280600681526020017f52616968616e0000000000000000000000000000000000000000000000000000815250815250600f5f820151815f015560208201518160010190816200017191906200045a565b5050506040518060400160405280600781526020016040518060400160405280600681526020017f52616968616e000000000000000000000000000000000000000000000000000081525081525060115f820151815f01556020820151816001019081620001e091906200045a565b505050348015620001ef575f80fd5b506200053e565b5f81519050919050565b7f4e487b71000000000000000000000000000000000000000000000000000000005f52604160045260245ffd5b7f4e487b71000000000000000000000000000000000000000000000000000000005f52602260045260245ffd5b5f60028204905060018216806200027257607f821691505b6020821081036200028857620002876200022d565b5b50919050565b5f819050815f5260205f209050919050565b5f6020601f8301049050919050565b5f82821b905092915050565b5f60088302620002ec7fffffffffffffffffffffffffffffffffffffffffffffffffffffffffffffffff82620002af565b620002f88683620002af565b95508019841693508086168417925050509392505050565b5f819050919050565b5f819050919050565b5f620003426200033c620003368462000310565b62000319565b62000310565b9050919050565b5f819050919050565b6200035d8362000322565b620003756200036c8262000349565b848454620002bb565b825550505050565b5f90565b6200038b6200037d565b6200039881848462000352565b505050565b5b81811015620003bf57620003b35f8262000381565b6001810190506200039e565b5050565b601f8211156200040e57620003d8816200028e565b620003e384620002a0565b81016020851015620003f3578190505b6200040b6200040285620002a0565b8301826200039d565b50505b505050565b5f82821c905092915050565b5f620004305f198460080262000413565b1980831691505092915050565b5f6200044a83836200041f565b9150826002028217905092915050565b6200046582620001f6565b67ffffffffffffffff81111562000481576200048062000200565b5b6200048d82546200025a565b6200049a828285620003c3565b5f60209050601f831160018114620004d0575f8415620004bb578287015190505b620004c785826200043d565b86555062000536565b601f198416620004e0866200028e565b5f5b828110156200050957848901518255600182019150602085019450602081019050620004e2565b8683101562000529578489015162000525601f8916826200041f565b8355505b6001600288020188555050505b505050505050565b610b9f806200054c5f395ff3fe608060405234801561000f575f80fd5b5060043610610091575f3560e01c8063b974b53011610064578063b974b53014610130578063bc832d4e1461014c578063d729ea2e14610168578063deb0040b14610187578063f8fa20f6146101b857610091565b80630ce121d3146100955780636057361d146100c65780638bab8dd5146100e2578063a621d15e14610112575b5f80fd5b6100af60048036038101906100aa9190610578565b6101d7565b6040516100bd92919061063c565b60405180910390f35b6100e060048036038101906100db9190610578565b61028c565b005b6100fc60048036038101906100f79190610796565b610296565b60405161010991906107dd565b60405180910390f35b61011a6102c3565b60405161012791906107dd565b60405180910390f35b61014a600480360381019061014591906107f6565b6102cc565b005b610166600480360381019061016191906107f6565b6102f3565b005b610170610359565b60405161017e92919061063c565b60405180910390f35b6101a1600480360381019061019c9190610578565b6103f0565b6040516101af92919061063c565b60405180910390f35b6101c061049d565b6040516101ce92919061063c565b60405180910390f35b600881815481106101e6575f80fd5b905f5260205f2090600202015f91509050805f01549080600101805461020b9061087d565b80601f01602080910402602001604051908101604052809291908181526020018280546102379061087d565b80156102825780601f1061025957610100808354040283529160200191610282565b820191905f5260205f20905b81548152906001019060200180831161026557829003601f168201915b5050505050905082565b8060068190555050565b6014818051602081018201805184825260208301602085012081835280955050505050505f915090505481565b5f600654905090565b816014826040516102dd91906108e7565b9081526020016040518091039020819055505050565b5f6040518060400160405280848152602001838152509050600881908060018154018082558091505060019003905f5260205f2090600202015f909190919091505f820151815f015560208201518160010190816103519190610a9a565b505050505050565b600f805f01549080600101805461036f9061087d565b80601f016020809104026020016040519081016040528092919081815260200182805461039b9061087d565b80156103e65780601f106103bd576101008083540402835291602001916103e6565b820191905f5260205f20905b8154815290600101906020018083116103c957829003601f168201915b5050505050905082565b600981600381106103ff575f80fd5b600202015f91509050805f01549080600101805461041c9061087d565b80601f01602080910402602001604051908101604052809291908181526020018280546104489061087d565b80156104935780601f1061046a57610100808354040283529160200191610493565b820191905f5260205f20905b81548152906001019060200180831161047657829003601f168201915b5050505050905082565b6011805f0154908060010180546104b39061087d565b80601f01602080910402602001604051908101604052809291908181526020018280546104df9061087d565b801561052a5780601f106105015761010080835404028352916020019161052a565b820191905f5260205f20905b81548152906001019060200180831161050d57829003601f168201915b5050505050905082565b5f604051905090565b5f80fd5b5f80fd5b5f819050919050565b61055781610545565b8114610561575f80fd5b50565b5f813590506105728161054e565b92915050565b5f6020828403121561058d5761058c61053d565b5b5f61059a84828501610564565b91505092915050565b6105ac81610545565b82525050565b5f81519050919050565b5f82825260208201905092915050565b5f5b838110156105e95780820151818401526020810190506105ce565b5f8484015250505050565b5f601f19601f8301169050919050565b5f61060e826105b2565b61061881856105bc565b93506106288185602086016105cc565b610631816105f4565b840191505092915050565b5f60408201905061064f5f8301856105a3565b81810360208301526106618184610604565b90509392505050565b5f80fd5b5f80fd5b7f4e487b71000000000000000000000000000000000000000000000000000000005f52604160045260245ffd5b6106a8826105f4565b810181811067ffffffffffffffff821117156106c7576106c6610672565b5b80604052505050565b5f6106d9610534565b90506106e5828261069f565b919050565b5f67ffffffffffffffff82111561070457610703610672565b5b61070d826105f4565b9050602081019050919050565b828183375f83830152505050565b5f61073a610735846106ea565b6106d0565b9050828152602081018484840111156107565761075561066e565b5b61076184828561071a565b509392505050565b5f82601f83011261077d5761077c61066a565b5b813561078d848260208601610728565b91505092915050565b5f602082840312156107ab576107aa61053d565b5b5f82013567ffffffffffffffff8111156107c8576107c7610541565b5b6107d484828501610769565b91505092915050565b5f6020820190506107f05f8301846105a3565b92915050565b5f806040838503121561080c5761080b61053d565b5b5f61081985828601610564565b925050602083013567ffffffffffffffff81111561083a57610839610541565b5b61084685828601610769565b9150509250929050565b7f4e487b71000000000000000000000000000000000000000000000000000000005f52602260045260245ffd5b5f600282049050600182168061089457607f821691505b6020821081036108a7576108a6610850565b5b50919050565b5f81905092915050565b5f6108c1826105b2565b6108cb81856108ad565b93506108db8185602086016105cc565b80840191505092915050565b5f6108f282846108b7565b915081905092915050565b5f819050815f5260205f209050919050565b5f6020601f8301049050919050565b5f82821b905092915050565b5f600883026109597fffffffffffffffffffffffffffffffffffffffffffffffffffffffffffffffff8261091e565b610963868361091e565b95508019841693508086168417925050509392505050565b5f819050919050565b5f61099e61099961099484610545565b61097b565b610545565b9050919050565b5f819050919050565b6109b783610984565b6109cb6109c3826109a5565b84845461092a565b825550505050565b5f90565b6109df6109d3565b6109ea8184846109ae565b505050565b5b81811015610a0d57610a025f826109d7565b6001810190506109f0565b5050565b601f821115610a5257610a23816108fd565b610a2c8461090f565b81016020851015610a3b578190505b610a4f610a478561090f565b8301826109ef565b50505b505050565b5f82821c905092915050565b5f610a725f1984600802610a57565b1980831691505092915050565b5f610a8a8383610a63565b9150826002028217905092915050565b610aa3826105b2565b67ffffffffffffffff811115610abc57610abb610672565b5b610ac6825461087d565b610ad1828285610a11565b5f60209050601f831160018114610b02575f8415610af0578287015190505b610afa8582610a7f565b865550610b61565b601f198416610b10866108fd565b5f5b82811015610b3757848901518255600182019150602085019450602081019050610b12565b86831015610b545784890151610b50601f891682610a63565b8355505b6001600288020188555050505b50505050505056fea2646970667358221220e09d1c9acd912ba2a56999ab1489519358a6f714838804220516b959426f760564736f6c63430008180033",
			"opcodes": "PUSH1 0x80 PUSH1 0x40 MSTORE PUSH1 0x1 PUSH0 DUP1 PUSH2 0x100 EXP DUP2 SLOAD DUP2 PUSH1 0xFF MUL NOT AND SWAP1 DUP4 ISZERO ISZERO MUL OR SWAP1 SSTORE POP PUSH1 0x58 PUSH1 0x1 SSTORE PUSH32 0xFFFFFFFFFFFFFFFFFFFFFFFFFFFFFFFFFFFFFFFFFFFFFFFFFFFFFFFFFFFFFFA8 PUSH1 0x2 SSTORE PUSH1 0x40 MLOAD DUP1 PUSH1 0x40 ADD PUSH1 0x40 MSTORE DUP1 PUSH1 0xB DUP2 MSTORE PUSH1 0x20 ADD PUSH32 0x68656C6C6F20776F726C64000000000000000000000000000000000000000000 DUP2 MSTORE POP PUSH1 0x3 SWAP1 DUP2 PUSH3 0x8C SWAP2 SWAP1 PUSH3 0x45A JUMP JUMPDEST POP PUSH20 0x60D447C7704F3F9077E52FB4E581E996175FAE3A PUSH1 0x4 PUSH0 PUSH2 0x100 EXP DUP2 SLOAD DUP2 PUSH20 0xFFFFFFFFFFFFFFFFFFFFFFFFFFFFFFFFFFFFFFFF MUL NOT AND SWAP1 DUP4 PUSH20 0xFFFFFFFFFFFFFFFFFFFFFFFFFFFFFFFFFFFFFFFF AND MUL OR SWAP1 SSTORE POP PUSH32 0x6361740000000000000000000000000000000000000000000000000000000000 PUSH1 0x5 SSTORE PUSH1 0x40 MLOAD DUP1 PUSH1 0x40 ADD PUSH1 0x40 MSTORE DUP1 PUSH1 0x7 DUP2 MSTORE PUSH1 0x20 ADD PUSH1 0x40 MLOAD DUP1 PUSH1 0x40 ADD PUSH1 0x40 MSTORE DUP1 PUSH1 0x6 DUP2 MSTORE PUSH1 0x20 ADD PUSH32 0x52616968616E0000000000000000000000000000000000000000000000000000 DUP2 MSTORE POP DUP2 MSTORE POP PUSH1 0xF PUSH0 DUP3 ADD MLOAD DUP2 PUSH0 ADD SSTORE PUSH1 0x20 DUP3 ADD MLOAD DUP2 PUSH1 0x1 ADD SWAP1 DUP2 PUSH3 0x171 SWAP2 SWAP1 PUSH3 0x45A JUMP JUMPDEST POP POP POP PUSH1 0x40 MLOAD DUP1 PUSH1 0x40 ADD PUSH1 0x40 MSTORE DUP1 PUSH1 0x7 DUP2 MSTORE PUSH1 0x20 ADD PUSH1 0x40 MLOAD DUP1 PUSH1 0x40 ADD PUSH1 0x40 MSTORE DUP1 PUSH1 0x6 DUP2 MSTORE PUSH1 0x20 ADD PUSH32 0x52616968616E0000000000000000000000000000000000000000000000000000 DUP2 MSTORE POP DUP2 MSTORE POP PUSH1 0x11 PUSH0 DUP3 ADD MLOAD DUP2 PUSH0 ADD SSTORE PUSH1 0x20 DUP3 ADD MLOAD DUP2 PUSH1 0x1 ADD SWAP1 DUP2 PUSH3 0x1E0 SWAP2 SWAP1 PUSH3 0x45A JUMP JUMPDEST POP POP POP CALLVALUE DUP1 ISZERO PUSH3 0x1EF JUMPI PUSH0 DUP1 REVERT JUMPDEST POP PUSH3 0x53E JUMP JUMPDEST PUSH0 DUP2 MLOAD SWAP1 POP SWAP2 SWAP1 POP JUMP JUMPDEST PUSH32 0x4E487B7100000000000000000000000000000000000000000000000000000000 PUSH0 MSTORE PUSH1 0x41 PUSH1 0x4 MSTORE PUSH1 0x24 PUSH0 REVERT JUMPDEST PUSH32 0x4E487B7100000000000000000000000000000000000000000000000000000000 PUSH0 MSTORE PUSH1 0x22 PUSH1 0x4 MSTORE PUSH1 0x24 PUSH0 REVERT JUMPDEST PUSH0 PUSH1 0x2 DUP3 DIV SWAP1 POP PUSH1 0x1 DUP3 AND DUP1 PUSH3 0x272 JUMPI PUSH1 0x7F DUP3 AND SWAP2 POP JUMPDEST PUSH1 0x20 DUP3 LT DUP2 SUB PUSH3 0x288 JUMPI PUSH3 0x287 PUSH3 0x22D JUMP JUMPDEST JUMPDEST POP SWAP2 SWAP1 POP JUMP JUMPDEST PUSH0 DUP2 SWAP1 POP DUP2 PUSH0 MSTORE PUSH1 0x20 PUSH0 KECCAK256 SWAP1 POP SWAP2 SWAP1 POP JUMP JUMPDEST PUSH0 PUSH1 0x20 PUSH1 0x1F DUP4 ADD DIV SWAP1 POP SWAP2 SWAP1 POP JUMP JUMPDEST PUSH0 DUP3 DUP3 SHL SWAP1 POP SWAP3 SWAP2 POP POP JUMP JUMPDEST PUSH0 PUSH1 0x8 DUP4 MUL PUSH3 0x2EC PUSH32 0xFFFFFFFFFFFFFFFFFFFFFFFFFFFFFFFFFFFFFFFFFFFFFFFFFFFFFFFFFFFFFFFF DUP3 PUSH3 0x2AF JUMP JUMPDEST PUSH3 0x2F8 DUP7 DUP4 PUSH3 0x2AF JUMP JUMPDEST SWAP6 POP DUP1 NOT DUP5 AND SWAP4 POP DUP1 DUP7 AND DUP5 OR SWAP3 POP POP POP SWAP4 SWAP3 POP POP POP JUMP JUMPDEST PUSH0 DUP2 SWAP1 POP SWAP2 SWAP1 POP JUMP JUMPDEST PUSH0 DUP2 SWAP1 POP SWAP2 SWAP1 POP JUMP JUMPDEST PUSH0 PUSH3 0x342 PUSH3 0x33C PUSH3 0x336 DUP5 PUSH3 0x310 JUMP JUMPDEST PUSH3 0x319 JUMP JUMPDEST PUSH3 0x310 JUMP JUMPDEST SWAP1 POP SWAP2 SWAP1 POP JUMP JUMPDEST PUSH0 DUP2 SWAP1 POP SWAP2 SWAP1 POP JUMP JUMPDEST PUSH3 0x35D DUP4 PUSH3 0x322 JUMP JUMPDEST PUSH3 0x375 PUSH3 0x36C DUP3 PUSH3 0x349 JUMP JUMPDEST DUP5 DUP5 SLOAD PUSH3 0x2BB JUMP JUMPDEST DUP3 SSTORE POP POP POP POP JUMP JUMPDEST PUSH0 SWAP1 JUMP JUMPDEST PUSH3 0x38B PUSH3 0x37D JUMP JUMPDEST PUSH3 0x398 DUP2 DUP5 DUP5 PUSH3 0x352 JUMP JUMPDEST POP POP POP JUMP JUMPDEST JUMPDEST DUP2 DUP2 LT ISZERO PUSH3 0x3BF JUMPI PUSH3 0x3B3 PUSH0 DUP3 PUSH3 0x381 JUMP JUMPDEST PUSH1 0x1 DUP2 ADD SWAP1 POP PUSH3 0x39E JUMP JUMPDEST POP POP JUMP JUMPDEST PUSH1 0x1F DUP3 GT ISZERO PUSH3 0x40E JUMPI PUSH3 0x3D8 DUP2 PUSH3 0x28E JUMP JUMPDEST PUSH3 0x3E3 DUP5 PUSH3 0x2A0 JUMP JUMPDEST DUP2 ADD PUSH1 0x20 DUP6 LT ISZERO PUSH3 0x3F3 JUMPI DUP2 SWAP1 POP JUMPDEST PUSH3 0x40B PUSH3 0x402 DUP6 PUSH3 0x2A0 JUMP JUMPDEST DUP4 ADD DUP3 PUSH3 0x39D JUMP JUMPDEST POP POP JUMPDEST POP POP POP JUMP JUMPDEST PUSH0 DUP3 DUP3 SHR SWAP1 POP SWAP3 SWAP2 POP POP JUMP JUMPDEST PUSH0 PUSH3 0x430 PUSH0 NOT DUP5 PUSH1 0x8 MUL PUSH3 0x413 JUMP JUMPDEST NOT DUP1 DUP4 AND SWAP2 POP POP SWAP3 SWAP2 POP POP JUMP JUMPDEST PUSH0 PUSH3 0x44A DUP4 DUP4 PUSH3 0x41F JUMP JUMPDEST SWAP2 POP DUP3 PUSH1 0x2 MUL DUP3 OR SWAP1 POP SWAP3 SWAP2 POP POP JUMP JUMPDEST PUSH3 0x465 DUP3 PUSH3 0x1F6 JUMP JUMPDEST PUSH8 0xFFFFFFFFFFFFFFFF DUP2 GT ISZERO PUSH3 0x481 JUMPI PUSH3 0x480 PUSH3 0x200 JUMP JUMPDEST JUMPDEST PUSH3 0x48D DUP3 SLOAD PUSH3 0x25A JUMP JUMPDEST PUSH3 0x49A DUP3 DUP3 DUP6 PUSH3 0x3C3 JUMP JUMPDEST PUSH0 PUSH1 0x20 SWAP1 POP PUSH1 0x1F DUP4 GT PUSH1 0x1 DUP2 EQ PUSH3 0x4D0 JUMPI PUSH0 DUP5 ISZERO PUSH3 0x4BB JUMPI DUP3 DUP8 ADD MLOAD SWAP1 POP JUMPDEST PUSH3 0x4C7 DUP6 DUP3 PUSH3 0x43D JUMP JUMPDEST DUP7 SSTORE POP PUSH3 0x536 JUMP JUMPDEST PUSH1 0x1F NOT DUP5 AND PUSH3 0x4E0 DUP7 PUSH3 0x28E JUMP JUMPDEST PUSH0 JUMPDEST DUP3 DUP2 LT ISZERO PUSH3 0x509 JUMPI DUP5 DUP10 ADD MLOAD DUP3 SSTORE PUSH1 0x1 DUP3 ADD SWAP2 POP PUSH1 0x20 DUP6 ADD SWAP5 POP PUSH1 0x20 DUP2 ADD SWAP1 POP PUSH3 0x4E2 JUMP JUMPDEST DUP7 DUP4 LT ISZERO PUSH3 0x529 JUMPI DUP5 DUP10 ADD MLOAD PUSH3 0x525 PUSH1 0x1F DUP10 AND DUP3 PUSH3 0x41F JUMP JUMPDEST DUP4 SSTORE POP JUMPDEST PUSH1 0x1 PUSH1 0x2 DUP9 MUL ADD DUP9 SSTORE POP POP POP JUMPDEST POP POP POP POP POP POP JUMP JUMPDEST PUSH2 0xB9F DUP1 PUSH3 0x54C PUSH0 CODECOPY PUSH0 RETURN INVALID PUSH1 0x80 PUSH1 0x40 MSTORE CALLVALUE DUP1 ISZERO PUSH2 0xF JUMPI PUSH0 DUP1 REVERT JUMPDEST POP PUSH1 0x4 CALLDATASIZE LT PUSH2 0x91 JUMPI PUSH0 CALLDATALOAD PUSH1 0xE0 SHR DUP1 PUSH4 0xB974B530 GT PUSH2 0x64 JUMPI DUP1 PUSH4 0xB974B530 EQ PUSH2 0x130 JUMPI DUP1 PUSH4 0xBC832D4E EQ PUSH2 0x14C JUMPI DUP1 PUSH4 0xD729EA2E EQ PUSH2 0x168 JUMPI DUP1 PUSH4 0xDEB0040B EQ PUSH2 0x187 JUMPI DUP1 PUSH4 0xF8FA20F6 EQ PUSH2 0x1B8 JUMPI PUSH2 0x91 JUMP JUMPDEST DUP1 PUSH4 0xCE121D3 EQ PUSH2 0x95 JUMPI DUP1 PUSH4 0x6057361D EQ PUSH2 0xC6 JUMPI DUP1 PUSH4 0x8BAB8DD5 EQ PUSH2 0xE2 JUMPI DUP1 PUSH4 0xA621D15E EQ PUSH2 0x112 JUMPI JUMPDEST PUSH0 DUP1 REVERT JUMPDEST PUSH2 0xAF PUSH1 0x4 DUP1 CALLDATASIZE SUB DUP2 ADD SWAP1 PUSH2 0xAA SWAP2 SWAP1 PUSH2 0x578 JUMP JUMPDEST PUSH2 0x1D7 JUMP JUMPDEST PUSH1 0x40 MLOAD PUSH2 0xBD SWAP3 SWAP2 SWAP1 PUSH2 0x63C JUMP JUMPDEST PUSH1 0x40 MLOAD DUP1 SWAP2 SUB SWAP1 RETURN JUMPDEST PUSH2 0xE0 PUSH1 0x4 DUP1 CALLDATASIZE SUB DUP2 ADD SWAP1 PUSH2 0xDB SWAP2 SWAP1 PUSH2 0x578 JUMP JUMPDEST PUSH2 0x28C JUMP JUMPDEST STOP JUMPDEST PUSH2 0xFC PUSH1 0x4 DUP1 CALLDATASIZE SUB DUP2 ADD SWAP1 PUSH2 0xF7 SWAP2 SWAP1 PUSH2 0x796 JUMP JUMPDEST PUSH2 0x296 JUMP JUMPDEST PUSH1 0x40 MLOAD PUSH2 0x109 SWAP2 SWAP1 PUSH2 0x7DD JUMP JUMPDEST PUSH1 0x40 MLOAD DUP1 SWAP2 SUB SWAP1 RETURN JUMPDEST PUSH2 0x11A PUSH2 0x2C3 JUMP JUMPDEST PUSH1 0x40 MLOAD PUSH2 0x127 SWAP2 SWAP1 PUSH2 0x7DD JUMP JUMPDEST PUSH1 0x40 MLOAD DUP1 SWAP2 SUB SWAP1 RETURN JUMPDEST PUSH2 0x14A PUSH1 0x4 DUP1 CALLDATASIZE SUB DUP2 ADD SWAP1 PUSH2 0x145 SWAP2 SWAP1 PUSH2 0x7F6 JUMP JUMPDEST PUSH2 0x2CC JUMP JUMPDEST STOP JUMPDEST PUSH2 0x166 PUSH1 0x4 DUP1 CALLDATASIZE SUB DUP2 ADD SWAP1 PUSH2 0x161 SWAP2 SWAP1 PUSH2 0x7F6 JUMP JUMPDEST PUSH2 0x2F3 JUMP JUMPDEST STOP JUMPDEST PUSH2 0x170 PUSH2 0x359 JUMP JUMPDEST PUSH1 0x40 MLOAD PUSH2 0x17E SWAP3 SWAP2 SWAP1 PUSH2 0x63C JUMP JUMPDEST PUSH1 0x40 MLOAD DUP1 SWAP2 SUB SWAP1 RETURN JUMPDEST PUSH2 0x1A1 PUSH1 0x4 DUP1 CALLDATASIZE SUB DUP2 ADD SWAP1 PUSH2 0x19C SWAP2 SWAP1 PUSH2 0x578 JUMP JUMPDEST PUSH2 0x3F0 JUMP JUMPDEST PUSH1 0x40 MLOAD PUSH2 0x1AF SWAP3 SWAP2 SWAP1 PUSH2 0x63C JUMP JUMPDEST PUSH1 0x40 MLOAD DUP1 SWAP2 SUB SWAP1 RETURN JUMPDEST PUSH2 0x1C0 PUSH2 0x49D JUMP JUMPDEST PUSH1 0x40 MLOAD PUSH2 0x1CE SWAP3 SWAP2 SWAP1 PUSH2 0x63C JUMP JUMPDEST PUSH1 0x40 MLOAD DUP1 SWAP2 SUB SWAP1 RETURN JUMPDEST PUSH1 0x8 DUP2 DUP2 SLOAD DUP2 LT PUSH2 0x1E6 JUMPI PUSH0 DUP1 REVERT JUMPDEST SWAP1 PUSH0 MSTORE PUSH1 0x20 PUSH0 KECCAK256 SWAP1 PUSH1 0x2 MUL ADD PUSH0 SWAP2 POP SWAP1 POP DUP1 PUSH0 ADD SLOAD SWAP1 DUP1 PUSH1 0x1 ADD DUP1 SLOAD PUSH2 0x20B SWAP1 PUSH2 0x87D JUMP JUMPDEST DUP1 PUSH1 0x1F ADD PUSH1 0x20 DUP1 SWAP2 DIV MUL PUSH1 0x20 ADD PUSH1 0x40 MLOAD SWAP1 DUP2 ADD PUSH1 0x40 MSTORE DUP1 SWAP3 SWAP2 SWAP1 DUP2 DUP2 MSTORE PUSH1 0x20 ADD DUP3 DUP1 SLOAD PUSH2 0x237 SWAP1 PUSH2 0x87D JUMP JUMPDEST DUP1 ISZERO PUSH2 0x282 JUMPI DUP1 PUSH1 0x1F LT PUSH2 0x259 JUMPI PUSH2 0x100 DUP1 DUP4 SLOAD DIV MUL DUP4 MSTORE SWAP2 PUSH1 0x20 ADD SWAP2 PUSH2 0x282 JUMP JUMPDEST DUP3 ADD SWAP2 SWAP1 PUSH0 MSTORE PUSH1 0x20 PUSH0 KECCAK256 SWAP1 JUMPDEST DUP2 SLOAD DUP2 MSTORE SWAP1 PUSH1 0x1 ADD SWAP1 PUSH1 0x20 ADD DUP1 DUP4 GT PUSH2 0x265 JUMPI DUP3 SWAP1 SUB PUSH1 0x1F AND DUP3 ADD SWAP2 JUMPDEST POP POP POP POP POP SWAP1 POP DUP3 JUMP JUMPDEST DUP1 PUSH1 0x6 DUP2 SWAP1 SSTORE POP POP JUMP JUMPDEST PUSH1 0x14 DUP2 DUP1 MLOAD PUSH1 0x20 DUP2 ADD DUP3 ADD DUP1 MLOAD DUP5 DUP3 MSTORE PUSH1 0x20 DUP4 ADD PUSH1 0x20 DUP6 ADD KECCAK256 DUP2 DUP4 MSTORE DUP1 SWAP6 POP POP POP POP POP POP PUSH0 SWAP2 POP SWAP1 POP SLOAD DUP2 JUMP JUMPDEST PUSH0 PUSH1 0x6 SLOAD SWAP1 POP SWAP1 JUMP JUMPDEST DUP2 PUSH1 0x14 DUP3 PUSH1 0x40 MLOAD PUSH2 0x2DD SWAP2 SWAP1 PUSH2 0x8E7 JUMP JUMPDEST SWAP1 DUP2 MSTORE PUSH1 0x20 ADD PUSH1 0x40 MLOAD DUP1 SWAP2 SUB SWAP1 KECCAK256 DUP2 SWAP1 SSTORE POP POP POP JUMP JUMPDEST PUSH0 PUSH1 0x40 MLOAD DUP1 PUSH1 0x40 ADD PUSH1 0x40 MSTORE DUP1 DUP5 DUP2 MSTORE PUSH1 0x20 ADD DUP4 DUP2 MSTORE POP SWAP1 POP PUSH1 0x8 DUP2 SWAP1 DUP1 PUSH1 0x1 DUP2 SLOAD ADD DUP1 DUP3 SSTORE DUP1 SWAP2 POP POP PUSH1 0x1 SWAP1 SUB SWAP1 PUSH0 MSTORE PUSH1 0x20 PUSH0 KECCAK256 SWAP1 PUSH1 0x2 MUL ADD PUSH0 SWAP1 SWAP2 SWAP1 SWAP2 SWAP1 SWAP2 POP PUSH0 DUP3 ADD MLOAD DUP2 PUSH0 ADD SSTORE PUSH1 0x20 DUP3 ADD MLOAD DUP2 PUSH1 0x1 ADD SWAP1 DUP2 PUSH2 0x351 SWAP2 SWAP1 PUSH2 0xA9A JUMP JUMPDEST POP POP POP POP POP POP JUMP JUMPDEST PUSH1 0xF DUP1 PUSH0 ADD SLOAD SWAP1 DUP1 PUSH1 0x1 ADD DUP1 SLOAD PUSH2 0x36F SWAP1 PUSH2 0x87D JUMP JUMPDEST DUP1 PUSH1 0x1F ADD PUSH1 0x20 DUP1 SWAP2 DIV MUL PUSH1 0x20 ADD PUSH1 0x40 MLOAD SWAP1 DUP2 ADD PUSH1 0x40 MSTORE DUP1 SWAP3 SWAP2 SWAP1 DUP2 DUP2 MSTORE PUSH1 0x20 ADD DUP3 DUP1 SLOAD PUSH2 0x39B SWAP1 PUSH2 0x87D JUMP JUMPDEST DUP1 ISZERO PUSH2 0x3E6 JUMPI DUP1 PUSH1 0x1F LT PUSH2 0x3BD JUMPI PUSH2 0x100 DUP1 DUP4 SLOAD DIV MUL DUP4 MSTORE SWAP2 PUSH1 0x20 ADD SWAP2 PUSH2 0x3E6 JUMP JUMPDEST DUP3 ADD SWAP2 SWAP1 PUSH0 MSTORE PUSH1 0x20 PUSH0 KECCAK256 SWAP1 JUMPDEST DUP2 SLOAD DUP2 MSTORE SWAP1 PUSH1 0x1 ADD SWAP1 PUSH1 0x20 ADD DUP1 DUP4 GT PUSH2 0x3C9 JUMPI DUP3 SWAP1 SUB PUSH1 0x1F AND DUP3 ADD SWAP2 JUMPDEST POP POP POP POP POP SWAP1 POP DUP3 JUMP JUMPDEST PUSH1 0x9 DUP2 PUSH1 0x3 DUP2 LT PUSH2 0x3FF JUMPI PUSH0 DUP1 REVERT JUMPDEST PUSH1 0x2 MUL ADD PUSH0 SWAP2 POP SWAP1 POP DUP1 PUSH0 ADD SLOAD SWAP1 DUP1 PUSH1 0x1 ADD DUP1 SLOAD PUSH2 0x41C SWAP1 PUSH2 0x87D JUMP JUMPDEST DUP1 PUSH1 0x1F ADD PUSH1 0x20 DUP1 SWAP2 DIV MUL PUSH1 0x20 ADD PUSH1 0x40 MLOAD SWAP1 DUP2 ADD PUSH1 0x40 MSTORE DUP1 SWAP3 SWAP2 SWAP1 DUP2 DUP2 MSTORE PUSH1 0x20 ADD DUP3 DUP1 SLOAD PUSH2 0x448 SWAP1 PUSH2 0x87D JUMP JUMPDEST DUP1 ISZERO PUSH2 0x493 JUMPI DUP1 PUSH1 0x1F LT PUSH2 0x46A JUMPI PUSH2 0x100 DUP1 DUP4 SLOAD DIV MUL DUP4 MSTORE SWAP2 PUSH1 0x20 ADD SWAP2 PUSH2 0x493 JUMP JUMPDEST DUP3 ADD SWAP2 SWAP1 PUSH0 MSTORE PUSH1 0x20 PUSH0 KECCAK256 SWAP1 JUMPDEST DUP2 SLOAD DUP2 MSTORE SWAP1 PUSH1 0x1 ADD SWAP1 PUSH1 0x20 ADD DUP1 DUP4 GT PUSH2 0x476 JUMPI DUP3 SWAP1 SUB PUSH1 0x1F AND DUP3 ADD SWAP2 JUMPDEST POP POP POP POP POP SWAP1 POP DUP3 JUMP JUMPDEST PUSH1 0x11 DUP1 PUSH0 ADD SLOAD SWAP1 DUP1 PUSH1 0x1 ADD DUP1 SLOAD PUSH2 0x4B3 SWAP1 PUSH2 0x87D JUMP JUMPDEST DUP1 PUSH1 0x1F ADD PUSH1 0x20 DUP1 SWAP2 DIV MUL PUSH1 0x20 ADD PUSH1 0x40 MLOAD SWAP1 DUP2 ADD PUSH1 0x40 MSTORE DUP1 SWAP3 SWAP2 SWAP1 DUP2 DUP2 MSTORE PUSH1 0x20 ADD DUP3 DUP1 SLOAD PUSH2 0x4DF SWAP1 PUSH2 0x87D JUMP JUMPDEST DUP1 ISZERO PUSH2 0x52A JUMPI DUP1 PUSH1 0x1F LT PUSH2 0x501 JUMPI PUSH2 0x100 DUP1 DUP4 SLOAD DIV MUL DUP4 MSTORE SWAP2 PUSH1 0x20 ADD SWAP2 PUSH2 0x52A JUMP JUMPDEST DUP3 ADD SWAP2 SWAP1 PUSH0 MSTORE PUSH1 0x20 PUSH0 KECCAK256 SWAP1 JUMPDEST DUP2 SLOAD DUP2 MSTORE SWAP1 PUSH1 0x1 ADD SWAP1 PUSH1 0x20 ADD DUP1 DUP4 GT PUSH2 0x50D JUMPI DUP3 SWAP1 SUB PUSH1 0x1F AND DUP3 ADD SWAP2 JUMPDEST POP POP POP POP POP SWAP1 POP DUP3 JUMP JUMPDEST PUSH0 PUSH1 0x40 MLOAD SWAP1 POP SWAP1 JUMP JUMPDEST PUSH0 DUP1 REVERT JUMPDEST PUSH0 DUP1 REVERT JUMPDEST PUSH0 DUP2 SWAP1 POP SWAP2 SWAP1 POP JUMP JUMPDEST PUSH2 0x557 DUP2 PUSH2 0x545 JUMP JUMPDEST DUP2 EQ PUSH2 0x561 JUMPI PUSH0 DUP1 REVERT JUMPDEST POP JUMP JUMPDEST PUSH0 DUP2 CALLDATALOAD SWAP1 POP PUSH2 0x572 DUP2 PUSH2 0x54E JUMP JUMPDEST SWAP3 SWAP2 POP POP JUMP JUMPDEST PUSH0 PUSH1 0x20 DUP3 DUP5 SUB SLT ISZERO PUSH2 0x58D JUMPI PUSH2 0x58C PUSH2 0x53D JUMP JUMPDEST JUMPDEST PUSH0 PUSH2 0x59A DUP5 DUP3 DUP6 ADD PUSH2 0x564 JUMP JUMPDEST SWAP2 POP POP SWAP3 SWAP2 POP POP JUMP JUMPDEST PUSH2 0x5AC DUP2 PUSH2 0x545 JUMP JUMPDEST DUP3 MSTORE POP POP JUMP JUMPDEST PUSH0 DUP2 MLOAD SWAP1 POP SWAP2 SWAP1 POP JUMP JUMPDEST PUSH0 DUP3 DUP3 MSTORE PUSH1 0x20 DUP3 ADD SWAP1 POP SWAP3 SWAP2 POP POP JUMP JUMPDEST PUSH0 JUMPDEST DUP4 DUP2 LT ISZERO PUSH2 0x5E9 JUMPI DUP1 DUP3 ADD MLOAD DUP2 DUP5 ADD MSTORE PUSH1 0x20 DUP2 ADD SWAP1 POP PUSH2 0x5CE JUMP JUMPDEST PUSH0 DUP5 DUP5 ADD MSTORE POP POP POP POP JUMP JUMPDEST PUSH0 PUSH1 0x1F NOT PUSH1 0x1F DUP4 ADD AND SWAP1 POP SWAP2 SWAP1 POP JUMP JUMPDEST PUSH0 PUSH2 0x60E DUP3 PUSH2 0x5B2 JUMP JUMPDEST PUSH2 0x618 DUP2 DUP6 PUSH2 0x5BC JUMP JUMPDEST SWAP4 POP PUSH2 0x628 DUP2 DUP6 PUSH1 0x20 DUP7 ADD PUSH2 0x5CC JUMP JUMPDEST PUSH2 0x631 DUP2 PUSH2 0x5F4 JUMP JUMPDEST DUP5 ADD SWAP2 POP POP SWAP3 SWAP2 POP POP JUMP JUMPDEST PUSH0 PUSH1 0x40 DUP3 ADD SWAP1 POP PUSH2 0x64F PUSH0 DUP4 ADD DUP6 PUSH2 0x5A3 JUMP JUMPDEST DUP2 DUP2 SUB PUSH1 0x20 DUP4 ADD MSTORE PUSH2 0x661 DUP2 DUP5 PUSH2 0x604 JUMP JUMPDEST SWAP1 POP SWAP4 SWAP3 POP POP POP JUMP JUMPDEST PUSH0 DUP1 REVERT JUMPDEST PUSH0 DUP1 REVERT JUMPDEST PUSH32 0x4E487B7100000000000000000000000000000000000000000000000000000000 PUSH0 MSTORE PUSH1 0x41 PUSH1 0x4 MSTORE PUSH1 0x24 PUSH0 REVERT JUMPDEST PUSH2 0x6A8 DUP3 PUSH2 0x5F4 JUMP JUMPDEST DUP2 ADD DUP2 DUP2 LT PUSH8 0xFFFFFFFFFFFFFFFF DUP3 GT OR ISZERO PUSH2 0x6C7 JUMPI PUSH2 0x6C6 PUSH2 0x672 JUMP JUMPDEST JUMPDEST DUP1 PUSH1 0x40 MSTORE POP POP POP JUMP JUMPDEST PUSH0 PUSH2 0x6D9 PUSH2 0x534 JUMP JUMPDEST SWAP1 POP PUSH2 0x6E5 DUP3 DUP3 PUSH2 0x69F JUMP JUMPDEST SWAP2 SWAP1 POP JUMP JUMPDEST PUSH0 PUSH8 0xFFFFFFFFFFFFFFFF DUP3 GT ISZERO PUSH2 0x704 JUMPI PUSH2 0x703 PUSH2 0x672 JUMP JUMPDEST JUMPDEST PUSH2 0x70D DUP3 PUSH2 0x5F4 JUMP JUMPDEST SWAP1 POP PUSH1 0x20 DUP2 ADD SWAP1 POP SWAP2 SWAP1 POP JUMP JUMPDEST DUP3 DUP2 DUP4 CALLDATACOPY PUSH0 DUP4 DUP4 ADD MSTORE POP POP POP JUMP JUMPDEST PUSH0 PUSH2 0x73A PUSH2 0x735 DUP5 PUSH2 0x6EA JUMP JUMPDEST PUSH2 0x6D0 JUMP JUMPDEST SWAP1 POP DUP3 DUP2 MSTORE PUSH1 0x20 DUP2 ADD DUP5 DUP5 DUP5 ADD GT ISZERO PUSH2 0x756 JUMPI PUSH2 0x755 PUSH2 0x66E JUMP JUMPDEST JUMPDEST PUSH2 0x761 DUP5 DUP3 DUP6 PUSH2 0x71A JUMP JUMPDEST POP SWAP4 SWAP3 POP POP POP JUMP JUMPDEST PUSH0 DUP3 PUSH1 0x1F DUP4 ADD SLT PUSH2 0x77D JUMPI PUSH2 0x77C PUSH2 0x66A JUMP JUMPDEST JUMPDEST DUP2 CALLDATALOAD PUSH2 0x78D DUP5 DUP3 PUSH1 0x20 DUP7 ADD PUSH2 0x728 JUMP JUMPDEST SWAP2 POP POP SWAP3 SWAP2 POP POP JUMP JUMPDEST PUSH0 PUSH1 0x20 DUP3 DUP5 SUB SLT ISZERO PUSH2 0x7AB JUMPI PUSH2 0x7AA PUSH2 0x53D JUMP JUMPDEST JUMPDEST PUSH0 DUP3 ADD CALLDATALOAD PUSH8 0xFFFFFFFFFFFFFFFF DUP2 GT ISZERO PUSH2 0x7C8 JUMPI PUSH2 0x7C7 PUSH2 0x541 JUMP JUMPDEST JUMPDEST PUSH2 0x7D4 DUP5 DUP3 DUP6 ADD PUSH2 0x769 JUMP JUMPDEST SWAP2 POP POP SWAP3 SWAP2 POP POP JUMP JUMPDEST PUSH0 PUSH1 0x20 DUP3 ADD SWAP1 POP PUSH2 0x7F0 PUSH0 DUP4 ADD DUP5 PUSH2 0x5A3 JUMP JUMPDEST SWAP3 SWAP2 POP POP JUMP JUMPDEST PUSH0 DUP1 PUSH1 0x40 DUP4 DUP6 SUB SLT ISZERO PUSH2 0x80C JUMPI PUSH2 0x80B PUSH2 0x53D JUMP JUMPDEST JUMPDEST PUSH0 PUSH2 0x819 DUP6 DUP3 DUP7 ADD PUSH2 0x564 JUMP JUMPDEST SWAP3 POP POP PUSH1 0x20 DUP4 ADD CALLDATALOAD PUSH8 0xFFFFFFFFFFFFFFFF DUP2 GT ISZERO PUSH2 0x83A JUMPI PUSH2 0x839 PUSH2 0x541 JUMP JUMPDEST JUMPDEST PUSH2 0x846 DUP6 DUP3 DUP7 ADD PUSH2 0x769 JUMP JUMPDEST SWAP2 POP POP SWAP3 POP SWAP3 SWAP1 POP JUMP JUMPDEST PUSH32 0x4E487B7100000000000000000000000000000000000000000000000000000000 PUSH0 MSTORE PUSH1 0x22 PUSH1 0x4 MSTORE PUSH1 0x24 PUSH0 REVERT JUMPDEST PUSH0 PUSH1 0x2 DUP3 DIV SWAP1 POP PUSH1 0x1 DUP3 AND DUP1 PUSH2 0x894 JUMPI PUSH1 0x7F DUP3 AND SWAP2 POP JUMPDEST PUSH1 0x20 DUP3 LT DUP2 SUB PUSH2 0x8A7 JUMPI PUSH2 0x8A6 PUSH2 0x850 JUMP JUMPDEST JUMPDEST POP SWAP2 SWAP1 POP JUMP JUMPDEST PUSH0 DUP2 SWAP1 POP SWAP3 SWAP2 POP POP JUMP JUMPDEST PUSH0 PUSH2 0x8C1 DUP3 PUSH2 0x5B2 JUMP JUMPDEST PUSH2 0x8CB DUP2 DUP6 PUSH2 0x8AD JUMP JUMPDEST SWAP4 POP PUSH2 0x8DB DUP2 DUP6 PUSH1 0x20 DUP7 ADD PUSH2 0x5CC JUMP JUMPDEST DUP1 DUP5 ADD SWAP2 POP POP SWAP3 SWAP2 POP POP JUMP JUMPDEST PUSH0 PUSH2 0x8F2 DUP3 DUP5 PUSH2 0x8B7 JUMP JUMPDEST SWAP2 POP DUP2 SWAP1 POP SWAP3 SWAP2 POP POP JUMP JUMPDEST PUSH0 DUP2 SWAP1 POP DUP2 PUSH0 MSTORE PUSH1 0x20 PUSH0 KECCAK256 SWAP1 POP SWAP2 SWAP1 POP JUMP JUMPDEST PUSH0 PUSH1 0x20 PUSH1 0x1F DUP4 ADD DIV SWAP1 POP SWAP2 SWAP1 POP JUMP JUMPDEST PUSH0 DUP3 DUP3 SHL SWAP1 POP SWAP3 SWAP2 POP POP JUMP JUMPDEST PUSH0 PUSH1 0x8 DUP4 MUL PUSH2 0x959 PUSH32 0xFFFFFFFFFFFFFFFFFFFFFFFFFFFFFFFFFFFFFFFFFFFFFFFFFFFFFFFFFFFFFFFF DUP3 PUSH2 0x91E JUMP JUMPDEST PUSH2 0x963 DUP7 DUP4 PUSH2 0x91E JUMP JUMPDEST SWAP6 POP DUP1 NOT DUP5 AND SWAP4 POP DUP1 DUP7 AND DUP5 OR SWAP3 POP POP POP SWAP4 SWAP3 POP POP POP JUMP JUMPDEST PUSH0 DUP2 SWAP1 POP SWAP2 SWAP1 POP JUMP JUMPDEST PUSH0 PUSH2 0x99E PUSH2 0x999 PUSH2 0x994 DUP5 PUSH2 0x545 JUMP JUMPDEST PUSH2 0x97B JUMP JUMPDEST PUSH2 0x545 JUMP JUMPDEST SWAP1 POP SWAP2 SWAP1 POP JUMP JUMPDEST PUSH0 DUP2 SWAP1 POP SWAP2 SWAP1 POP JUMP JUMPDEST PUSH2 0x9B7 DUP4 PUSH2 0x984 JUMP JUMPDEST PUSH2 0x9CB PUSH2 0x9C3 DUP3 PUSH2 0x9A5 JUMP JUMPDEST DUP5 DUP5 SLOAD PUSH2 0x92A JUMP JUMPDEST DUP3 SSTORE POP POP POP POP JUMP JUMPDEST PUSH0 SWAP1 JUMP JUMPDEST PUSH2 0x9DF PUSH2 0x9D3 JUMP JUMPDEST PUSH2 0x9EA DUP2 DUP5 DUP5 PUSH2 0x9AE JUMP JUMPDEST POP POP POP JUMP JUMPDEST JUMPDEST DUP2 DUP2 LT ISZERO PUSH2 0xA0D JUMPI PUSH2 0xA02 PUSH0 DUP3 PUSH2 0x9D7 JUMP JUMPDEST PUSH1 0x1 DUP2 ADD SWAP1 POP PUSH2 0x9F0 JUMP JUMPDEST POP POP JUMP JUMPDEST PUSH1 0x1F DUP3 GT ISZERO PUSH2 0xA52 JUMPI PUSH2 0xA23 DUP2 PUSH2 0x8FD JUMP JUMPDEST PUSH2 0xA2C DUP5 PUSH2 0x90F JUMP JUMPDEST DUP2 ADD PUSH1 0x20 DUP6 LT ISZERO PUSH2 0xA3B JUMPI DUP2 SWAP1 POP JUMPDEST PUSH2 0xA4F PUSH2 0xA47 DUP6 PUSH2 0x90F JUMP JUMPDEST DUP4 ADD DUP3 PUSH2 0x9EF JUMP JUMPDEST POP POP JUMPDEST POP POP POP JUMP JUMPDEST PUSH0 DUP3 DUP3 SHR SWAP1 POP SWAP3 SWAP2 POP POP JUMP JUMPDEST PUSH0 PUSH2 0xA72 PUSH0 NOT DUP5 PUSH1 0x8 MUL PUSH2 0xA57 JUMP JUMPDEST NOT DUP1 DUP4 AND SWAP2 POP POP SWAP3 SWAP2 POP POP JUMP JUMPDEST PUSH0 PUSH2 0xA8A DUP4 DUP4 PUSH2 0xA63 JUMP JUMPDEST SWAP2 POP DUP3 PUSH1 0x2 MUL DUP3 OR SWAP1 POP SWAP3 SWAP2 POP POP JUMP JUMPDEST PUSH2 0xAA3 DUP3 PUSH2 0x5B2 JUMP JUMPDEST PUSH8 0xFFFFFFFFFFFFFFFF DUP2 GT ISZERO PUSH2 0xABC JUMPI PUSH2 0xABB PUSH2 0x672 JUMP JUMPDEST JUMPDEST PUSH2 0xAC6 DUP3 SLOAD PUSH2 0x87D JUMP JUMPDEST PUSH2 0xAD1 DUP3 DUP3 DUP6 PUSH2 0xA11 JUMP JUMPDEST PUSH0 PUSH1 0x20 SWAP1 POP PUSH1 0x1F DUP4 GT PUSH1 0x1 DUP2 EQ PUSH2 0xB02 JUMPI PUSH0 DUP5 ISZERO PUSH2 0xAF0 JUMPI DUP3 DUP8 ADD MLOAD SWAP1 POP JUMPDEST PUSH2 0xAFA DUP6 DUP3 PUSH2 0xA7F JUMP JUMPDEST DUP7 SSTORE POP PUSH2 0xB61 JUMP JUMPDEST PUSH1 0x1F NOT DUP5 AND PUSH2 0xB10 DUP7 PUSH2 0x8FD JUMP JUMPDEST PUSH0 JUMPDEST DUP3 DUP2 LT ISZERO PUSH2 0xB37 JUMPI DUP5 DUP10 ADD MLOAD DUP3 SSTORE PUSH1 0x1 DUP3 ADD SWAP2 POP PUSH1 0x20 DUP6 ADD SWAP5 POP PUSH1 0x20 DUP2 ADD SWAP1 POP PUSH2 0xB12 JUMP JUMPDEST DUP7 DUP4 LT ISZERO PUSH2 0xB54 JUMPI DUP5 DUP10 ADD MLOAD PUSH2 0xB50 PUSH1 0x1F DUP10 AND DUP3 PUSH2 0xA63 JUMP JUMPDEST DUP4 SSTORE POP JUMPDEST PUSH1 0x1 PUSH1 0x2 DUP9 MUL ADD DUP9 SSTORE POP POP POP JUMPDEST POP POP POP POP POP POP JUMP INVALID LOG2 PUSH5 0x6970667358 0x22 SLT KECCAK256 0xE0 SWAP14 SHR SWAP11 0xCD SWAP2 0x2B LOG2 0xA5 PUSH10 0x99AB1489519358A6F714 DUP4 DUP9 DIV 0x22 SDIV AND 0xB9 MSIZE TIMESTAMP PUSH16 0x760564736F6C63430008180033000000 "
		},
		"gasEstimates": {
			"creation": {
				"codeDepositCost": "595000",
				"executionCost": "infinite",
				"totalCost": "infinite"
			},
			"external": {
				"addPerson(uint256,string)": "infinite",
				"addPersonWithMapping(uint256,string)": "infinite",
				"getFavoriteNumber()": "2499",
				"listOfPerson(uint256)": "infinite",
				"myPerson1()": "infinite",
				"myPerson2()": "infinite",
				"nameToFavoriteNumber(string)": "infinite",
				"staticArrayPerson(uint256)": "infinite",
				"store(uint256)": "22538"
			}
		},
		"methodIdentifiers": {
			"addPerson(uint256,string)": "bc832d4e",
			"addPersonWithMapping(uint256,string)": "b974b530",
			"getFavoriteNumber()": "a621d15e",
			"listOfPerson(uint256)": "0ce121d3",
			"myPerson1()": "d729ea2e",
			"myPerson2()": "f8fa20f6",
			"nameToFavoriteNumber(string)": "8bab8dd5",
			"staticArrayPerson(uint256)": "deb0040b",
			"store(uint256)": "6057361d"
		}
	},
	"abi": [
		{
			"inputs": [
				{
					"internalType": "uint256",
					"name": "_favoriteNumber",
					"type": "uint256"
				},
				{
					"internalType": "string",
					"name": "name",
					"type": "string"
				}
			],
			"name": "addPerson",
			"outputs": [],
			"stateMutability": "nonpayable",
			"type": "function"
		},
		{
			"inputs": [
				{
					"internalType": "uint256",
					"name": "_favoriteNumber",
					"type": "uint256"
				},
				{
					"internalType": "string",
					"name": "_name",
					"type": "string"
				}
			],
			"name": "addPersonWithMapping",
			"outputs": [],
			"stateMutability": "nonpayable",
			"type": "function"
		},
		{
			"inputs": [],
			"name": "getFavoriteNumber",
			"outputs": [
				{
					"internalType": "uint256",
					"name": "",
					"type": "uint256"
				}
			],
			"stateMutability": "view",
			"type": "function"
		},
		{
			"inputs": [
				{
					"internalType": "uint256",
					"name": "",
					"type": "uint256"
				}
			],
			"name": "listOfPerson",
			"outputs": [
				{
					"internalType": "uint256",
					"name": "favoriteNumber",
					"type": "uint256"
				},
				{
					"internalType": "string",
					"name": "name",
					"type": "string"
				}
			],
			"stateMutability": "view",
			"type": "function"
		},
		{
			"inputs": [],
			"name": "myPerson1",
			"outputs": [
				{
					"internalType": "uint256",
					"name": "favoriteNumber",
					"type": "uint256"
				},
				{
					"internalType": "string",
					"name": "name",
					"type": "string"
				}
			],
			"stateMutability": "view",
			"type": "function"
		},
		{
			"inputs": [],
			"name": "myPerson2",
			"outputs": [
				{
					"internalType": "uint256",
					"name": "favoriteNumber",
					"type": "uint256"
				},
				{
					"internalType": "string",
					"name": "name",
					"type": "string"
				}
			],
			"stateMutability": "view",
			"type": "function"
		},
		{
			"inputs": [
				{
					"internalType": "string",
					"name": "",
					"type": "string"
				}
			],
			"name": "nameToFavoriteNumber",
			"outputs": [
				{
					"internalType": "uint256",
					"name": "",
					"type": "uint256"
				}
			],
			"stateMutability": "view",
			"type": "function"
		},
		{
			"inputs": [
				{
					"internalType": "uint256",
					"name": "",
					"type": "uint256"
				}
			],
			"name": "staticArrayPerson",
			"outputs": [
				{
					"internalType": "uint256",
					"name": "favoriteNumber",
					"type": "uint256"
				},
				{
					"internalType": "string",
					"name": "name",
					"type": "string"
				}
			],
			"stateMutability": "view",
			"type": "function"
		},
		{
			"inputs": [
				{
					"internalType": "uint256",
					"name": "_favoriteNumber",
					"type": "uint256"
				}
			],
			"name": "store",
			"outputs": [],
			"stateMutability": "nonpayable",
			"type": "function"
		}
	]
}